:020000040000FA
:100000000C94B0010C94CD010C94CD010C94CD0155
:100010000C94CD010C94CD010C94CD010C94CD0128
:100020000C94CD010C94CD010C94CD010C94CD0118
:100030000C9473050C94CD010C94CD010C94CD015E
:100040000C94CD010C94CD010C94CD010C94CD01F8
:100050000C94CD010C94CD010C94CD010C94DD03D6
:100060000C94CD010C94CD010C94CD010C94CD01D8
:100070000C94CD010C94CD010C94CD010C94CD01C8
:100080000C94CD010C94CD010C94CD010C9427045B
:100090000C94CD010C94CD010C94CD010C94CD01A8
:1000A0000C94CD010C94CD010C94CD010000000006
:1000B0002300260029002C002F000000000025004E
:1000C00028002B002E00310004040404040304055E
:1000D00002020202040302020202060606060606E5
:1000E00004040202020404040802011040804010CB
:1000F000204080408008020401804020100201104E
:100100008010204040200000000200090F00000382
:100110000401000C000000000000000000000000CE
:100120000000000000200000000000210404040082
:1001300004220A0A000000230A0F0A0F0A24060DEF
:10014000060B0625090204090026060409060027F5
:100150000808000000280102020201290804040422
:10016000082A000A040A002B00040E04002C0000D8
:100170000004042D00000E00002E00000004002FDB
:10018000020204080830040A0A0A0431040C0404B8
:1001900004320E0106080F330F0102090634080A63
:1001A0000A0F02350F0806010E3607080E090E3732
:1001B0000F01020404380609060906390709070178
:1001C000013A00040004003B00040004043C010266
:1001D0000402013D000E000E003E04020102043F35
:1001E000060902000640070B0B0806410609090F25
:1001F00009420E090E090E430708080807440E09B4
:1002000009090E450F080E080F460F080E0808478B
:1002100007080B09074809090F0909490E040404D6
:100220000E4A0F010109064B090A0C0A094C08087D
:1002300008080F4D090F0F0F094E090D0B0B094F41
:100240000609090906500E090E0808510609090693
:1002500003520E090E090953070806010E5407023E
:10026000020202550909090906560909090A045733
:10027000090B0F0F09580909060909590905020454
:10028000085A0F0204080F5B03020202035C040415
:100290000201015D0C0404040C5E040A0000005F0E
:1002A000000000000F600402000000610007090761
:1002B0000062080E090E00630007080700640107CA
:1002C0000907006506090E07006603040E040067AF
:1002D000000F090F0F68080E0909006906000606DD
:1002E000006A02000404086B080B0E09006C040489
:1002F0000406006D000E0B0B006E000C0A0A006F66
:10030000000609060070000E090E087100070907B3
:1003100001720003040400730003060E0074040657
:100320000402007500090907007600090A04007735
:1003300000090B06007800090609007900090D0282
:100340000C7A000F040F007B03020602037C0404F6
:100350000404047D0C0406040C7E050A0000000061
:1003600011241FBECFEFDAE0DEBFCDBF11E0A0E069
:10037000B1E0ECEFFEE002C005900D92A631B107AE
:10038000D9F721E0A6E1B1E001C01D92A334B20784
:10039000E1F70E948A050C947C070C9400008150C0
:1003A0008F3008F047C0E82FF0E0E752FE4F0C9482
:1003B0006207F601FA01E801EE01F2011A021A02DF
:1003C0001A02FD01030207020B0211021A021502B2
:1003D000809180008F7780938000089580918000C5
:1003E0008F7DF9CF80918000877FF5CF84B58F779F
:1003F00084BD089584B58F7DFBCF809190008F7769
:10040000809390000895809190008F7DF9CF809126
:100410009000877FF5CF8091C0008F778093C000D8
:1004200008958091C0008F7DF9CF8091C200877FB1
:100430008093C20008951F93CF93DF93282F30E05D
:10044000F901EA5FFE4F8491F901E951FF4FD49120
:10045000F901E853FF4FC491CC23A9F0162F811165
:100460000E94CF01EC2FF0E0EE0FFF1FE654FF4F8C
:10047000A591B4918FB7F894EC91111108C0D09563
:10048000DE23DC938FBFDF91CF911F910895DE2B88
:10049000F8CF3FB7F8948091260190912701A09161
:1004A0002801B091290126B5A89B05C02F3F19F05E
:1004B0000196A11DB11D3FBFBA2FA92F982F8827E4
:1004C000BC01CD01620F711D811D911D42E0660FBF
:1004D000771F881F991F4A95D1F708958F929F9291
:1004E000AF92BF92CF92DF92EF92FF926B017C01AD
:1004F0000E9449024B015C01C114D104E104F104E2
:10050000B9F00E944902681979098A099B09683E75
:1005100073408105910580F321E0C21AD108E108FA
:10052000F10888EE880E83E0981EA11CB11CE4CF70
:10053000FF90EF90DF90CF90BF90AF909F908F9003
:1005400008952F923F924F925F926F927F928F9277
:100550009F92AF92BF92CF92DF92EF92FF920F9352
:100560001F93CF93DF93CDB7DEB76C970FB6F89498
:10057000DEBF0FBECDBF8C01F12CE12C88599F4FFF
:10058000988F8F8B85E0D82ED801AA59BF4FBA8F8C
:10059000A98F95E0292E312C26E0C22E3E01B7E12D
:1005A0006B0E711CF8013296FC8FEB8FAF89B88D02
:1005B0008D909C90D89C2001D99C500C1124E4145F
:1005C000F5040CF0E1C0F80120813181C9010597E3
:1005D000A98DBA8DAD90BC9097FFADC0F50180811B
:1005E000082E000C990B8097F0E0E0E0CE9EB00161
:1005F000CF9E700D1124DE01519650E040E06B5DFE
:100600007E4FFB01E40FF51FE491ED934F5F5F4FC9
:1006100046305105B1F7C89EA001C99E500D112466
:10062000DE01119690E080E04B5D5E4FFA01E80F2D
:10063000F91FE491ED93019686309105B9F74E01CB
:10064000B2E18B0E911CAE014E5F5F4FF801D401F9
:10065000BD904D016B2DDA017D91AD01872FB3FA6D
:10066000992790F992831382B2FA992790F994838B
:1006700015826695617066831782B0FABB24B0F864
:10068000B08611861386128673FB992790F994879A
:10069000158672FB992790F9968717868695817043
:1006A000808B118A7170728B138A158A148A7496E2
:1006B0006814790461F6C901B1010E944E0770E027
:1006C00060E050E040E0D69ED001D79EB00D1124EE
:1006D000A65DBE4FA40FB51FEAE0AE2EA49EF001AA
:1006E000A59EF00D1124E60FF71FE80FF91FEE0F7E
:1006F000FF1FAB8CBC8CEA0DFB1DE081EC934F5FC0
:100700005F4F45305105F9F66F5F7F4F65307105DA
:10071000C1F62F5F3F4F2415350594F5D8012D9371
:100720003C9366E070E080E090E00E946E02FFEF94
:10073000EF1AFF0A3BCFB1010E944E07CB01B40173
:100740000E944E07AC014F5F5F4F8A0D9B1DDC017D
:10075000EC910E2E000CFF0BB09790E080E0481556
:1007600059050CF043CFCA01B4010E944E07A80EF0
:10077000B91ED5018C91082E000C990B809736CFAD
:10078000F80111821082CDCF6C960FB6F894DEBFBF
:100790000FBECDBFDF91CF911F910F91FF90EF90D2
:1007A000DF90CF90BF90AF909F908F907F906F9091
:1007B0005F904F903F902F9008951F920F920FB629
:1007C0000F9211242F933F938F939F93AF93BF93D7
:1007D0008091220190912301A0912401B0912501E3
:1007E0003091210123E0230F2D3758F50196A11DEB
:1007F000B11D209321018093220190932301A093A6
:100800002401B09325018091260190912701A091A8
:100810002801B09129010196A11DB11D80932601E7
:1008200090932701A0932801B0932901BF91AF9124
:100830009F918F913F912F910F900FBE0F901F901E
:10084000189526E8230F0296A11DB11DD2CF1F9245
:100850000F920FB60F9211242F933F934F935F93F4
:100860006F937F938F939F93AF93BF93EF93FF9378
:1008700083EF9FEF909395008093940080912001E7
:1008800090911F01853008F005C15C9A5E9A5F9ACD
:100890002D9A479A923009F4CEC008F0A0C099234F
:1008A00009F4AFC0913009F4B9C0823009F4E6C050
:1008B00008F0DBC0813009F4DFC05C9880911F0133
:1008C0008F5F853009F4DEC080931F0180911B018A
:1008D00090911C01A0911D01B0911E010196A11DD6
:1008E000B11D80931B0190931C01A0931D01B09337
:1008F0001E01883E9B4CA105B105D9F480911701DA
:1009000090911801A0911901B0911A0110921B0148
:1009100010921C0110921D0110921E010196A11D42
:10092000B11D8093170190931801A0931901B09302
:100930001A018091170190911801A0911901B091AD
:100940001A010697A105B105CCF160E081E00E9493
:100950001B0260E080E00E941B0260E082E00E94D7
:100960001B0260E083E00E941B0260E08BE00E94BB
:100970001B0260E084E00E941B0260E08CE00E94A9
:100980001B0260E086E00E941B0260E089E00E949A
:100990001B0260E08DE00E941B0260E08EE00E947E
:1009A0001B0260E087E00E941B0283B7817F8460A6
:1009B00083BFF89483B7816083BF8895FF91EF91DF
:1009C000BF91AF919F918F917F916F915F914F9167
:1009D0003F912F910F900FBE0F901F90189593305D
:1009E000B9F1943009F061CF589825E0829FF00169
:1009F0001124E65DFE4F9481992309F456CF2F9A76
:100A000054CF2F9825E0829FF0011124E65DFE4F20
:100A10009081992309F449CF5B9A47CF5B9895E081
:100A2000899FF0011124E65DFE4F9181992309F41D
:100A30003CCF5A9A3ACF5A9825E0829FF001112470
:100A4000E65DFE4F9281992309F42FCF599A2DCF5D
:100A5000599895E0899FF0011124E65DFE4F93813E
:100A6000992309F422CF589A20CF833049F084305B
:100A700009F023CF479822CF5E9820CF5F981ECFF2
:100A80002D981CCF10921F01809120018F5F8093C1
:100A900020011CCF81E0890F80931F01992371F001
:100AA0009130B9F0769810921F01109220011092A7
:100AB000910083B7817F846083BF08CF2F98479AC6
:100AC0008091020190910301892B09F4FFCE2B9AAA
:100AD000FDCE2B988091000190910101892B09F4A2
:100AE000F5CE769AF3CE1F920F920FB60F92112485
:100AF0008F9383E08093910083B7817F83BF809140
:100B000016018F5F809316018F910F900FBE0F908B
:100B10001F901895CF93DF93CDB7DEB7C657D10995
:100B20000FB6F894DEBF0FBECDBF789484B5826057
:100B300084BD84B5816084BD85B5826085BD85B581
:100B4000816085BD80916E00816080936E001092FF
:100B5000810080918100826080938100809181007A
:100B6000816080938100809180008160809380000B
:100B700080919100826080939100809191008160CA
:100B8000809391008091900081608093900080918B
:100B9000C10084608093C1008091C1008260809315
:100BA000C1008091C10081608093C1008091C30029
:100BB00081608093C3008091C00082608093C000F8
:100BC0008091C20081608093C20080917A0084602D
:100BD00080937A0080917A00826080937A0080917D
:100BE0007A00816080937A0080917A008068809397
:100BF0007A0015B888EF84B918B880EC87B91BB8AB
:100C00008FED8AB91EB884E48DB911BA10BA80E8A4
:100C10008093610082E0809361001092910083EFE5
:100C20009FEF90939500809394001092900083E042
:100C3000809391008091710081608093710084B7EE
:100C4000877F84BF8091600088618093600080E42A
:100C50008093600085B7806885BF85B7806885BF51
:100C600061E08EE00E941B0261E087E00E941B02AF
:100C7000E7E1F1E08491E8EFF0E00491E9EDF0E0E4
:100C80001491112309F451C081110E94CF01E12F69
:100C9000F0E0EE0FFF1FE455FF4FA591B491EC91EA
:100CA000E02309F442C08091E00081608093E0007D
:100CB000F89469E170E080E090E00E946E0284B7F1
:100CC000877F84BF0FB6F894A895809160008861F3
:100CD00080936000109260000FBE1092C1001092CD
:100CE000BF001092BE00109281001092710010920D
:100CF00085001092840019BC1092DA0010926E00E8
:100D000080E28093D80080E88093D70088E08093C9
:100D1000D90010926E0080E090E0DC0148E350E0E2
:100D200060E070E0E82FF42F099460E08EE00E940C
:100D30001B0260E087E00E941B02809164008260D9
:100D4000809364008091640084608093640080914B
:100D50006400806880936400809164008860809360
:100D600064008091640080648093640080916500D9
:100D7000806180936500809165008160809365004B
:100D80008091E00081608093E00080916500806840
:100D9000809365008091D80080628093D80089B5E7
:100DA0008D7F89BD8091D8008F778093D800809106
:100DB000E1008E7F8093E1008091D8008062809373
:100DC000D80089B58D7F89BD8091C50088608093EA
:100DD000C5008091C70081FFFCCF8091C5008E7F48
:100DE0008093C5008091C5008B7F8093C50082B73A
:100DF000806882BF109203011092020110920101DB
:100E0000109200016DE770E080E090E00E946E02B9
:100E10008E0109591F4F84E0882E81E0982E9CE0B6
:100E2000C92ED12C21E1A22E21E0B22E33E0E32EF7
:100E3000F12CF801918280821A821982FE01339688
:100E40003F01119211920E171F07D9F7AB96DFAE33
:100E5000CEAEAB97CE0101960E94A10266E470E08F
:100E600080E090E00E946E02F801B182A0821A82B6
:100E70001982F301119211920E171F07D9F7AB9641
:100E8000FFAEEEAEAB97CE0101960E94A1026EE1DD
:100E900070E080E090E00E946E02CBCF97FB072EBF
:100EA00016F4009407D077FD09D00E94680707FC6C
:100EB00005D03EF4909581959F4F0895709561956A
:100EC0007F4F0895EE0FFF1F0590F491E02D0994D8
:100ED000AA1BBB1B51E107C0AA1FBB1FA617B70760
:100EE00010F0A61BB70B881F991F5A95A9F780957C
:100EF0009095BC01CD010895F894FFCF0100010049
:100F000048454C4C4F204C4F41444552005B3A5DA4
:020F10000000DF
:107000005FC0000078C0000076C0000074C00000BF
:1070100072C0000070C000006EC000006CC00000B4
:107020006AC0000068C00000DAC4000064C000004C
:1070300062C0000060C000005EC000005CC00000D4
:107040005AC000009DC0000056C0000054C000009F
:1070500052C0000050C000004EC000004CC00000F4
:107060004AC0000048C0000046C0000044C0000004
:1070700042C0000040C000003EC000003CC0000014
:107080003AC0000038C0000036C0000034C0000024
:1070900032C0000030C000002EC000002CC0000034
:1070A0002AC0000028C0000026C00000583E713EE3
:1070B000153F713E153FA63EC83E153FE83EFA3EDD
:1070C00011241FBECFEFDAE0DEBFCDBF11E0A0E09C
:1070D000B1E0E4EBFEE702C005900D92A23BB107E0
:1070E000D9F721E0A2EBB1E001C01D92AB3CB207A1
:1070F000E1F720D3DDC684CF84E08093E90080915E
:10710000E80085FD0EC08091E8008B778093E80051
:107110008091E80082FDF3CF8EB38111F9CF80E03A
:1071200008958091F100089593E09093E900909183
:10713000E80095FF0AC08093F1005D9884E690E036
:107140009093B9018093B80108959091E8009E77DB
:107150009093E8009091E80090FDEDCF9EB39111DF
:10716000F9CF0895F89410926F001092810081E099
:1071700085BF15BE47985D9A289A0C940000089523
:107180001F920F920FB60F9211242F938F939F93FC
:10719000EF93FF9310928500109284008091B801C4
:1071A0009091B901009741F001979093B9018093B4
:1071B000B801892B09F45D9A8091B6019091B701CD
:1071C000009741F001979093B7018093B601892B06
:1071D00009F4289A8091B2019091B301019690939D
:1071E000B3018093B201E0E0F0E0859194910196C3
:1071F00049F08091B4019091B50101969093B50149
:107200008093B401FF91EF919F918F912F910F90F7
:107210000FBE0F901F90189542E061EC82E05AD3A8
:1072200042E161E883E056D342E160E884E052C382
:107230008091C301982F9F77913239F59091C401C5
:10724000903291F0913209F5813AF9F48091E80099
:10725000877F8093E80067E070E082E091E070D47F
:107260008091E8008B770FC0813279F48091E8003B
:10727000877F8093E80067E070E082E091E0B9D416
:107280008091E8008E778093E80008954F925F9296
:107290006F927F928F929F92AF92BF92CF92DF9226
:1072A000EF92FF92CF93DF9384E08093E900809187
:1072B000E80082FF30C2289884E690E09093B701FE
:1072C0008093B60119DFD82F853481F48CE49DE1D9
:1072D0009093B5018093B40107B600FCFDCFF999F6
:1072E000FECF81E180935700E89503C0843521F4F7
:1072F00003DF8DE019DFE6C18C34D9F38035C9F3A3
:10730000843721F484E410DF80E0F4CF813611F477
:1073100089E5F0CF813491F4EFDEC82FEDDE90E007
:10732000880F991F2C2F30E0322F2227330F822B0A
:10733000932BAA2797FDA095BA2F98C1803711F4F7
:1073400083E5D8CF833549F4C9EAD1E08991ECDEF1
:1073500021E0C03BD207D1F7B5C1863521F481E3E6
:10736000E3DE80E3C7CF833731F487E8DDDE85E9EC
:10737000DBDE8EE1BFCF8536B9F4E0E0F0E083E0FC
:1073800095E080935700E89507B600FCFDCF9093F9
:107390005700E89507B600FCFDCFE058FF4FE11518
:1073A00020E7F20771F7A5CF823719F4E1E0F0E0AA
:1073B0000EC0863419F4E0E0F0E009C08E3419F410
:1073C000E3E0F0E004C0813539F4E2E0F0E089E088
:1073D0008093570084918ECF823631F489E5A4DE04
:1073E00080E0A2DE80E886CF823419F0873609F08B
:1073F000D5C01092B5011092B4017EDED82E7CDE8D
:10740000E82E7ADEC82F8BEB8C0F823010F08FE3E2
:1074100071CFF12CFD2810926F00D73609F045C0CE
:1074200081E180935700E8955701912CD1E0A11498
:10743000B10409F4AFC0C090BB01D090BC01E09092
:10744000BD01F090BE01C634B9F4E92DF0E0EC299D
:10745000FD29849169DE992069F082E0C80ED11C73
:10746000E11CF11CC092BB01D092BC01E092BD01B5
:10747000F092BE019D2615C0D701C601B695A7950D
:1074800097958795FFD450DEE2E0CE0ED11CE11C2B
:10749000F11CC092BB01D092BC01E092BD01F09200
:1074A000BE01F1E0AF1AB108C2CF8090BB0190904D
:1074B000BC01A090BD01B090BE01C63421F0C12C2A
:1074C000D12CD1E030C083E0F40180935700E895DF
:1074D00007B600FCFDCFF3CFC63461F5DD2039F1EE
:1074E0004090BB015090BC016090BD017090BE0106
:1074F00003DE2C2D30E0382BF2010901D093570028
:10750000E8951124F2E04F0E511C611C711C409251
:10751000BB015092BC016092BD017092BE01DD269C
:1075200021E0E21AF108E114F104B1F627C0E4DD2C
:10753000C82EF5CFE1DD682F8091BB019091BC0191
:10754000A091BD01B091BE01B695A795979587957D
:10755000A1D44091BB015091BC016091BD017091DB
:10756000BE014E5F5F4F6F4F7F4F4093BB01509303
:10757000BC016093BD017093BE01D2CFC63441F40B
:1075800085E0F40180935700E89507B600FCFDCF35
:107590008DE0CADD82E080936F0094C0833471F483
:1075A000C091BB01D091BC01A7DD90E021E0FE01BC
:1075B0000C0120935700E89511249BCE833601F5EA
:1075C000C090BB01D090BC01E090BD01F090BE0125
:1075D00093DDF601E16090E021E00C01209357007B
:1075E000E8951124F2E0CF0ED11CE11CF11CC092F1
:1075F000BB01D092BC01E092BD01F092BE0179CEF8
:107600008D3661F4E091BB01F091BC0185E080937F
:107610005700E89507B600FCFDCF6BCE823551F4DC
:10762000E091BB01F091BC01C591D4918D2F7CDD1F
:107630008C2F60CE843419F55FDD682F8091BB01FB
:107640009091BC01A091BD01B091BE01B695A795E6
:10765000979587951FD48091BB019091BC01A09113
:10766000BD01B091BE010296A11DB11D8093BB0169
:107670009093BC01A093BD01B093BE013ACE843675
:10768000F1F4C090BB01D090BC01E090BD01F0903E
:10769000BE01D701C601B695A79597958795F2D3F8
:1076A00043DD22E0C20ED11CE11CF11CC092BB01E3
:1076B000D092BC01E092BD01F092BE0103C08B31BB
:1076C00009F0A5CE83E08093E9009091E8008091D5
:1076D000E8008E778093E80095FD11C08091E80066
:1076E00080FD04C08EB38111F9CF15C08091E800F0
:1076F0008E778093E80003C08EB3882361F0809179
:10770000E80080FFF9CF84E08093E9008091E800F1
:107710008B778093E800DF91CF91FF90EF90DF901F
:10772000CF90BF90AF909F908F907F906F905F9021
:107730004F900895CF93309100081092000824B71D
:1077400014BE88E10FB6F894809360001092600038
:107750000FBE90E080E80FB6F8948093610090939C
:1077600061000FBE81E085BF82E085BF3F9A209A0D
:10777000559A90E8909361001092610047985D9A45
:10778000289A109289009AEF9093880080936F0056
:1077900083E080938100E0E0F0E085919491019690
:1077A00019F081E08093BA0121FF20C0809100018F
:1077B0003817E1F0809300087894809101018823C4
:1077C00039F08091B2019091B30188379140C8F3AC
:1077D0001092010110920008F89481E08093010159
:1077E0008091BA01882371F0BDDC0CC020FF04C079
:1077F0008091BA018111F8CF23FF04C0809100016C
:107800003813EECFD4D078941092B5011092B40111
:10781000CEEF80910101882301F138DD1CD38091E6
:10782000B4019091B50181349F4110F01092010193
:107830008091BF019091C00101969093C001809307
:10784000BF01292F97FF02C02C2F291B220F2817B9
:1078500010F44798DECF479ADCCF8091E00081603A
:107860008093E0007FDC80E090E0CF910895292FA5
:1078700030E02230310539F02330310549F0213034
:10788000310561F410C08EE390E029E531E01EC0BF
:10789000882371F0813089F08230A1F080E090E09F
:1078A00020E030E013C082E190E027E931E00EC033
:1078B00084E090E025E531E009C08CE290E027E229
:1078C00031E004C08CE190E029E031E0FA0131833D
:1078D000208308958093E900EBEEF0E080818160E1
:1078E0008083EDEEF0E010826093EC0040838091A5
:1078F000EE00881F8827881F08958091C30187FDA7
:1079000005C08091E80080FF0DC010C08091E800A4
:1079100082FD04C08EB38111F9CF08958091E800F3
:107920008B7707C08EB38111ECCF08958091E8006A
:107930008E778093E80008950F931F93CF93DF9382
:1079400041D048D0C8EDD0E088818F778883888186
:107950008068888388818F7D888319BC1EBA1092C5
:10796000C10100EE10E0F80180818B7F8083888167
:107970008160888342E060E080E0ACDFE1EEF0E02F
:1079800080818E7F8083E2EEF0E080818160808361
:10799000808188608083F80180818E7F80838881E8
:1079A00080618883DF91CF911F910F910895E7ED5A
:1079B000F0E08081816080838AE482BF81E08093EF
:1079C000C201BACFE8EDF0E080818E7F8083109213
:1079D000E20008951092DA001092E10008951F92DB
:1079E0000F920FB60F9211242F933F934F935F93F3
:1079F0006F937F938F939F93AF93BF93EF93FF9377
:107A00008091DA0080FF1BC08091D80080FF17C0F2
:107A10008091DA008E7F8093DA008091D90080FF18
:107A20000BC080E189BD82E189BD09B400FEFDCFB4
:107A300081E08EBB0FD203C019BC1EBA0BD280915D
:107A4000E10080FF17C08091E20080FF13C08091A9
:107A5000E2008E7F8093E2008091E200806180935B
:107A6000E2008091D80080628093D80019BC85E044
:107A70008EBBF0D18091E10084FF2CC08091E200A8
:107A800084FF28C080E189BD82E189BD09B400FE80
:107A9000FDCF8091D8008F7D8093D8008091E10048
:107AA0008F7E8093E1008091E2008F7E8093E200E0
:107AB0008091E20081608093E2008091C101811198
:107AC00004C08091E30087FF02C084E001C081E030
:107AD0008EBBC0D18091E10083FF21C08091E20084
:107AE00083FF1DC08091E100877F8093E10082E0E9
:107AF0008EBB1092C1018091E1008E7F8093E100E6
:107B00008091E2008E7F8093E2008091E2008061AC
:107B10008093E20042E060E080E0DCDE9BD1FF91F8
:107B2000EF91BF91AF919F918F917F916F915F91F5
:107B30004F913F912F910F900FBE0F901F9018956E
:107B40002091C9013091CA012617370748F0611505
:107B5000710539F42091E8002E772093E80001C0E8
:107B6000B901FC0120E061157105A1F18EB38823F4
:107B7000E1F18530E1F18091E80083FD34C080912E
:107B8000E80082FF06C08091E80082FF26C080E006
:107B900008958091E80080FFE6CF2091F300809166
:107BA000F20090E0922B6115710551F0883091053B
:107BB00038F421912093F100615071090196F3CFBF
:107BC00021E0089709F020E08091E8008E7780930B
:107BD000E800C9CF2111CACFD6CF8EB3882329F0B0
:107BE000853089F604C081E0089582E0089583E03D
:107BF00008956115710529F42091E8002B772093F1
:107C0000E8006115710521F12EB3222351F12530D1
:107C100051F12091E80023FD20C02091E80022FFCF
:107C2000F3CFFC01CF014091F3002091F20030E04E
:107C3000342B232B09F38091F1008193CF01615004
:107C4000710981F7D9CF8EB3882359F0853059F067
:107C50008091E80080FFF7CF02C081E0089580E0C6
:107C6000089582E0089583E008950F931F93CF93C2
:107C7000DF9300D0CDB7DEB7E3ECF1E08091F10007
:107C8000819381E0EB3CF807C9F7D2DA8091E800F4
:107C900083FFCBC02091C3013091C401832F90E0BA
:107CA0008A30910508F0C1C0FC01EA5AF74CE4C0E3
:107CB000223809F0BAC08091C70187708093E9002B
:107CC0009091EB001092E9008091E800877F80930B
:107CD000E80095FB882780F98093F1001092F1006D
:107CE00082C0822F8D7F09F0A0C0223009F09DC094
:107CF0008091C501811124C02091C701277009F42A
:107D000094C02093E9008091EB0080FF19C080911E
:107D1000EB00333011F4806211C080618093EB007E
:107D200081E090E0022E01C0880F0A94EAF7809368
:107D3000EA001092EA008091EB0088608093EB00EB
:107D40001092E9008091E800877F50C021116DC03A
:107D50001091C5011F770FB7F8948091E800877FD5
:107D60008093E800CADD8091E80080FFFCCF80911D
:107D7000E3008078812B8093E30080688093E300A8
:107D8000112311F083E001C082E08EBB0FBF4DC014
:107D90002058223008F049C0AE014F5F5F4F60911C
:107DA000C7018091C5019091C60161DD009709F47A
:107DB0003CC02091E800277F2093E800BC01898126
:107DC0009A81BEDE8091E8008B778093E8002DC019
:107DD000203859F58091E800877F8093E8008091F2
:107DE000C1018093F1008091E8008E778093E800D4
:107DF00084DD1BC0211119C09091C5019230A8F4F7
:107E00008091E800877F8093E8009093C10175DD41
:107E10008091C101811104C08091E30087FF02C0FD
:107E200084E001C081E08EBBF7D98091E80083FF38
:107E30000AC08091EB0080628093EB008091E800A3
:107E4000877F8093E8000F900F90DF91CF911F9173
:107E50000F9108950895CF938EB3882359F0C09160
:107E6000E900C7701092E9008091E80083FDFDDE13
:107E7000C093E900CF910895EE0FFF1F0590F49194
:107E8000E02D0994F999FECF92BD81BDF89A99270A
:107E900080B50895262FF999FECF1FBA92BD81BDF6
:107EA00020BD0FB6F894FA9AF99A0FBE019608957C
:107EB000F894FFCF7701000000000000081C034188
:107EC0000072006400750069006E006F002000738E
:107ED0000072006C002000200000002C03410072A2
:107EE000006400750069006E006F0020004C0065A2
:107EF000006F006E006100720064006F002000459A
:107F00000054004800200000000403090409023E58
:107F10000002010080320904000001020201000594
:107F20002400100104240204052406000107058230
:107F3000030800FF09040100020A0000000705040D
:107F40000210000107058302100001120110010256
:107F5000000008032A4000010002010001434154CF
:067F60004552494E4100AC
:00000001FF
