:100000000C94B0010C94CD010C94CD010C94CD0155
:100010000C94CD010C94CD010C94CD010C94CD0128
:100020000C94CD010C94CD010C94CD010C94CD0118
:100030000C9473050C94CD010C94CD010C94CD015E
:100040000C94CD010C94CD010C94CD010C94CD01F8
:100050000C94CD010C94CD010C94CD010C94DD03D6
:100060000C94CD010C94CD010C94CD010C94CD01D8
:100070000C94CD010C94CD010C94CD010C94CD01C8
:100080000C94CD010C94CD010C94CD010C9427045B
:100090000C94CD010C94CD010C94CD010C94CD01A8
:1000A0000C94CD010C94CD010C94CD010000000006
:1000B0002300260029002C002F000000000025004E
:1000C00028002B002E00310004040404040304055E
:1000D00002020202040302020202060606060606E5
:1000E00004040202020404040802011040804010CB
:1000F000204080408008020401804020100201104E
:100100008010204040200000000200090F00000382
:100110000401000C000000000000000000000000CE
:100120000000000000200000000000210404040082
:1001300004220A0A000000230A0F0A0F0A24060DEF
:10014000060B0625090204090026060409060027F5
:100150000808000000280102020201290804040422
:10016000082A000A040A002B00040E04002C0000D8
:100170000004042D00000E00002E00000004002FDB
:10018000020204080830040A0A0A0431040C0404B8
:1001900004320E0106080F330F0102090634080A63
:1001A0000A0F02350F0806010E3607080E090E3732
:1001B0000F01020404380609060906390709070178
:1001C000013A00040004003B00040004043C010266
:1001D0000402013D000E000E003E04020102043F35
:1001E000060902000640070B0B0806410609090F25
:1001F00009420E090E090E430708080807440E09B4
:1002000009090E450F080E080F460F080E0808478B
:1002100007080B09074809090F0909490E040404D6
:100220000E4A0F010109064B090A0C0A094C08087D
:1002300008080F4D090F0F0F094E090D0B0B094F41
:100240000609090906500E090E0808510609090693
:1002500003520E090E090953070806010E5407023E
:10026000020202550909090906560909090A045733
:10027000090B0F0F09580909060909590905020454
:10028000085A0F0204080F5B03020202035C040415
:100290000201015D0C0404040C5E040A0000005F0E
:1002A000000000000F600402000000610007090761
:1002B0000062080E090E00630007080700640107CA
:1002C0000907006506090E07006603040E040067AF
:1002D000000F090F0F68080E0909006906000606DD
:1002E000006A02000404086B080B0E09006C040489
:1002F0000406006D000E0B0B006E000C0A0A006F66
:10030000000609060070000E090E087100070907B3
:1003100001720003040400730003060E0074040657
:100320000402007500090907007600090A04007735
:1003300000090B06007800090609007900090D0282
:100340000C7A000F040F007B03020602037C0404F6
:100350000404047D0C0406040C7E050A0000000061
:1003600011241FBECFEFDAE0DEBFCDBF11E0A0E069
:10037000B1E0ECEFFEE002C005900D92A631B107AE
:10038000D9F721E0A6E1B1E001C01D92A334B20784
:10039000E1F70E948A050C947C070C9400008150C0
:1003A0008F3008F047C0E82FF0E0E752FE4F0C9482
:1003B0006207F601FA01E801EE01F2011A021A02DF
:1003C0001A02FD01030207020B0211021A021502B2
:1003D000809180008F7780938000089580918000C5
:1003E0008F7DF9CF80918000877FF5CF84B58F779F
:1003F00084BD089584B58F7DFBCF809190008F7769
:10040000809390000895809190008F7DF9CF809126
:100410009000877FF5CF8091C0008F778093C000D8
:1004200008958091C0008F7DF9CF8091C200877FB1
:100430008093C20008951F93CF93DF93282F30E05D
:10044000F901EA5FFE4F8491F901E951FF4FD49120
:10045000F901E853FF4FC491CC23A9F0162F811165
:100460000E94CF01EC2FF0E0EE0FFF1FE654FF4F8C
:10047000A591B4918FB7F894EC91111108C0D09563
:10048000DE23DC938FBFDF91CF911F910895DE2B88
:10049000F8CF3FB7F8948091260190912701A09161
:1004A0002801B091290126B5A89B05C02F3F19F05E
:1004B0000196A11DB11D3FBFBA2FA92F982F8827E4
:1004C000BC01CD01620F711D811D911D42E0660FBF
:1004D000771F881F991F4A95D1F708958F929F9291
:1004E000AF92BF92CF92DF92EF92FF926B017C01AD
:1004F0000E9449024B015C01C114D104E104F104E2
:10050000B9F00E944902681979098A099B09683E75
:1005100073408105910580F321E0C21AD108E108FA
:10052000F10888EE880E83E0981EA11CB11CE4CF70
:10053000FF90EF90DF90CF90BF90AF909F908F9003
:1005400008952F923F924F925F926F927F928F9277
:100550009F92AF92BF92CF92DF92EF92FF920F9352
:100560001F93CF93DF93CDB7DEB76C970FB6F89498
:10057000DEBF0FBECDBF8C01F12CE12C88599F4FFF
:10058000988F8F8B85E0D82ED801AA59BF4FBA8F8C
:10059000A98F95E0292E312C26E0C22E3E01B7E12D
:1005A0006B0E711CF8013296FC8FEB8FAF89B88D02
:1005B0008D909C90D89C2001D99C500C1124E4145F
:1005C000F5040CF0E1C0F80120813181C9010597E3
:1005D000A98DBA8DAD90BC9097FFADC0F50180811B
:1005E000082E000C990B8097F0E0E0E0CE9EB00161
:1005F000CF9E700D1124DE01519650E040E06B5DFE
:100600007E4FFB01E40FF51FE491ED934F5F5F4FC9
:1006100046305105B1F7C89EA001C99E500D112466
:10062000DE01119690E080E04B5D5E4FFA01E80F2D
:10063000F91FE491ED93019686309105B9F74E01CB
:10064000B2E18B0E911CAE014E5F5F4FF801D401F9
:10065000BD904D016B2DDA017D91AD01872FB3FA6D
:10066000992790F992831382B2FA992790F994838B
:1006700015826695617066831782B0FABB24B0F864
:10068000B08611861386128673FB992790F994879A
:10069000158672FB992790F9968717868695817043
:1006A000808B118A7170728B138A158A148A7496E2
:1006B0006814790461F6C901B1010E944E0770E027
:1006C00060E050E040E0D69ED001D79EB00D1124EE
:1006D000A65DBE4FA40FB51FEAE0AE2EA49EF001AA
:1006E000A59EF00D1124E60FF71FE80FF91FEE0F7E
:1006F000FF1FAB8CBC8CEA0DFB1DE081EC934F5FC0
:100700005F4F45305105F9F66F5F7F4F65307105DA
:10071000C1F62F5F3F4F2415350594F5D8012D9371
:100720003C9366E070E080E090E00E946E02FFEF94
:10073000EF1AFF0A3BCFB1010E944E07CB01B40173
:100740000E944E07AC014F5F5F4F8A0D9B1DDC017D
:10075000EC910E2E000CFF0BB09790E080E0481556
:1007600059050CF043CFCA01B4010E944E07A80EF0
:10077000B91ED5018C91082E000C990B809736CFAD
:10078000F80111821082CDCF6C960FB6F894DEBFBF
:100790000FBECDBFDF91CF911F910F91FF90EF90D2
:1007A000DF90CF90BF90AF909F908F907F906F9091
:1007B0005F904F903F902F9008951F920F920FB629
:1007C0000F9211242F933F938F939F93AF93BF93D7
:1007D0008091220190912301A0912401B0912501E3
:1007E0003091210123E0230F2D3758F50196A11DEB
:1007F000B11D209321018093220190932301A093A6
:100800002401B09325018091260190912701A091A8
:100810002801B09129010196A11DB11D80932601E7
:1008200090932701A0932801B0932901BF91AF9124
:100830009F918F913F912F910F900FBE0F901F901E
:10084000189526E8230F0296A11DB11DD2CF1F9245
:100850000F920FB60F9211242F933F934F935F93F4
:100860006F937F938F939F93AF93BF93EF93FF9378
:1008700083EF9FEF909395008093940080912001E7
:1008800090911F01853008F005C15C9A5E9A5F9ACD
:100890002D9A479A923009F4CEC008F0A0C099234F
:1008A00009F4AFC0913009F4B9C0823009F4E6C050
:1008B00008F0DBC0813009F4DFC05C9880911F0133
:1008C0008F5F853009F4DEC080931F0180911B018A
:1008D00090911C01A0911D01B0911E010196A11DD6
:1008E000B11D80931B0190931C01A0931D01B09337
:1008F0001E01883E9B4CA105B105D9F480911701DA
:1009000090911801A0911901B0911A0110921B0148
:1009100010921C0110921D0110921E010196A11D42
:10092000B11D8093170190931801A0931901B09302
:100930001A018091170190911801A0911901B091AD
:100940001A010697A105B105CCF160E081E00E9493
:100950001B0260E080E00E941B0260E082E00E94D7
:100960001B0260E083E00E941B0260E08BE00E94BB
:100970001B0260E084E00E941B0260E08CE00E94A9
:100980001B0260E086E00E941B0260E089E00E949A
:100990001B0260E08DE00E941B0260E08EE00E947E
:1009A0001B0260E087E00E941B0283B7817F8460A6
:1009B00083BFF89483B7816083BF8895FF91EF91DF
:1009C000BF91AF919F918F917F916F915F914F9167
:1009D0003F912F910F900FBE0F901F90189593305D
:1009E000B9F1943009F061CF589825E0829FF00169
:1009F0001124E65DFE4F9481992309F456CF2F9A76
:100A000054CF2F9825E0829FF0011124E65DFE4F20
:100A10009081992309F449CF5B9A47CF5B9895E081
:100A2000899FF0011124E65DFE4F9181992309F41D
:100A30003CCF5A9A3ACF5A9825E0829FF001112470
:100A4000E65DFE4F9281992309F42FCF599A2DCF5D
:100A5000599895E0899FF0011124E65DFE4F93813E
:100A6000992309F422CF589A20CF833049F084305B
:100A700009F023CF479822CF5E9820CF5F981ECFF2
:100A80002D981CCF10921F01809120018F5F8093C1
:100A900020011CCF81E0890F80931F01992371F001
:100AA0009130B9F0769810921F01109220011092A7
:100AB000910083B7817F846083BF08CF2F98479AC6
:100AC0008091020190910301892B09F4FFCE2B9AAA
:100AD000FDCE2B988091000190910101892B09F4A2
:100AE000F5CE769AF3CE1F920F920FB60F92112485
:100AF0008F9383E08093910083B7817F83BF809140
:100B000016018F5F809316018F910F900FBE0F908B
:100B10001F901895CF93DF93CDB7DEB7C657D10995
:100B20000FB6F894DEBF0FBECDBF789484B5826057
:100B300084BD84B5816084BD85B5826085BD85B581
:100B4000816085BD80916E00816080936E001092FF
:100B5000810080918100826080938100809181007A
:100B6000816080938100809180008160809380000B
:100B700080919100826080939100809191008160CA
:100B8000809391008091900081608093900080918B
:100B9000C10084608093C1008091C1008260809315
:100BA000C1008091C10081608093C1008091C30029
:100BB00081608093C3008091C00082608093C000F8
:100BC0008091C20081608093C20080917A0084602D
:100BD00080937A0080917A00826080937A0080917D
:100BE0007A00816080937A0080917A008068809397
:100BF0007A0015B888EF84B918B880EC87B91BB8AB
:100C00008FED8AB91EB884E48DB911BA10BA80E8A4
:100C10008093610082E0809361001092910083EFE5
:100C20009FEF90939500809394001092900083E042
:100C3000809391008091710081608093710084B7EE
:100C4000877F84BF8091600088618093600080E42A
:100C50008093600085B7806885BF85B7806885BF51
:100C600061E08EE00E941B0261E087E00E941B02AF
:100C7000E7E1F1E08491E8EFF0E00491E9EDF0E0E4
:100C80001491112309F451C081110E94CF01E12F69
:100C9000F0E0EE0FFF1FE455FF4FA591B491EC91EA
:100CA000E02309F442C08091E00081608093E0007D
:100CB000F89469E170E080E090E00E946E0284B7F1
:100CC000877F84BF0FB6F894A895809160008861F3
:100CD00080936000109260000FBE1092C1001092CD
:100CE000BF001092BE00109281001092710010920D
:100CF00085001092840019BC1092DA0010926E00E8
:100D000080E28093D80080E88093D70088E08093C9
:100D1000D90010926E0080E090E0DC0148E350E0E2
:100D200060E070E0E82FF42F099460E08EE00E940C
:100D30001B0260E087E00E941B02809164008260D9
:100D4000809364008091640084608093640080914B
:100D50006400806880936400809164008860809360
:100D600064008091640080648093640080916500D9
:100D7000806180936500809165008160809365004B
:100D80008091E00081608093E00080916500806840
:100D9000809365008091D80080628093D80089B5E7
:100DA0008D7F89BD8091D8008F778093D800809106
:100DB000E1008E7F8093E1008091D8008062809373
:100DC000D80089B58D7F89BD8091C50088608093EA
:100DD000C5008091C70081FFFCCF8091C5008E7F48
:100DE0008093C5008091C5008B7F8093C50082B73A
:100DF000806882BF109203011092020110920101DB
:100E0000109200016DE770E080E090E00E946E02B9
:100E10008E0109591F4F84E0882E81E0982E9CE0B6
:100E2000C92ED12C21E1A22E21E0B22E33E0E32EF7
:100E3000F12CF801918280821A821982FE01339688
:100E40003F01119211920E171F07D9F7AB96DFAE33
:100E5000CEAEAB97CE0101960E94A10266E470E08F
:100E600080E090E00E946E02F801B182A0821A82B6
:100E70001982F301119211920E171F07D9F7AB9641
:100E8000FFAEEEAEAB97CE0101960E94A1026EE1DD
:100E900070E080E090E00E946E02CBCF97FB072EBF
:100EA00016F4009407D077FD09D00E94680707FC6C
:100EB00005D03EF4909581959F4F0895709561956A
:100EC0007F4F0895EE0FFF1F0590F491E02D0994D8
:100ED000AA1BBB1B51E107C0AA1FBB1FA617B70760
:100EE00010F0A61BB70B881F991F5A95A9F780957C
:0C0EF0009095BC01CD010895F894FFCF4F
:100EFC000100010048454C4C4F204C4F4144455299
:060F0C00005B3A5D0000ED
:00000001FF
